:100000000C9468000C942B170C9404170C9490001B
:100010000C9490000C9490000C9490000C94900020
:100020000C9490000C9452170C9490000C94900037
:100030000C9490000C9490000C9490000C94900000
:100040000C94BA160C9490000C94AD150C94871572
:100050000C9490000C9490000C9490000C949000E0
:100060000C9490000C9490006364696E6F707375CB
:1000700078585B0000000000240027002A000000E0
:100080000000250028002B000000000023002600AF
:10009000290004040404040404040202020202020B
:1000A000030303030303010204081020408001023C
:1000B00004081020010204081020000000080002BB
:1000C0000100000304070000000000000000802C75
:1000D00011241FBECFEFD8E0DEBFCDBF12E0A0E0FD
:1000E000B1E0E6E9FBE602C005900D92A63EB1073D
:1000F000D9F726E0A6EEB2E001C01D92A23CB207FD
:10010000E1F710E0C8E6D0E004C02197FE010E94AC
:100110009B2FC736D107C9F70E94411F0C94C935E0
:100120000C940000FC018091130120911401909126
:10013000150140E2249F90011124A901482B292F89
:1001400030E02C5E3F4F322F2227330F242B352BEC
:100150003183208320911D0380911E039091120111
:10016000E0E28E9FA0011124892F90E0982F88272C
:10017000990F990F990F842B952B30E03595279582
:10018000822B932BFB019183808308950895FC01BA
:1001900024A535A5231728F4E20FF11D848590E0EE
:1001A00008958FEF9FEF0895FC0194A585A59817FA
:1001B00048F4DF01A90FB11D1C962C9130E09F5F20
:1001C00094A702C02FEF3FEFC9010895FC0125A5B8
:1001D00030E084A5A901481B5109CA010895CF92B6
:1001E000DF92EF92FF920F931F93CF93DF936C01F7
:1001F000EB017B01E40EF51E00E010E0CE15DF05FB
:1002000061F06991D601ED91FC910190F081E02DB2
:10021000C6010995080F191FF1CFC801DF91CF91D1
:100220001F910F91FF90EF90DF90CF900895FC0108
:10023000848583FF0DC084A195A1A6A1B7A1448D9B
:10024000558D668D778D841B950BA60BB70B03C060
:1002500080E090E0DC01811520E89207A105B1055E
:1002600020F08FEF9FE7A0E0B0E00895089580E0D0
:1002700090E0089560913A0381E0682760933A0323
:100280008091E602882319F084E00E94081680918C
:100290003D0390913E03019690933E0380933D036E
:1002A00008950C960C942210CF93DF931F92CDB734
:1002B000DEB7698341E050E0BE016F5F7F4F0C966F
:1002C0000E9422100F90DF91CF9108950C960C940C
:1002D000EE0A4F925F926F927F928F929F92AF92AF
:1002E000BF92CF92DF92EF92FF92CF93DF93CDB781
:1002F000DEB760970FB6F894DEBF0FBECDBF20917A
:10030000590380915A0390E0A0E0B0E0BA2FA92FE2
:10031000982F8827A22B20915B03AC01BD01422BB3
:1003200049875A876B877C872091560360915703D2
:10033000862F90E0A0E0B0E0BA2FA92F982F882751
:10034000A22B20915803BC01CD01622B0E94FE2DEF
:100350006B017C018091E9029091EA02BC0180E08E
:1003600090E00E94FE2D20E030E040E853E40E943F
:10037000B52E9B01AC01C701B6010E94EB2C6B01AD
:100380007C016091E7027091E80280E090E00E94B9
:10039000FE2D9B01AC01C701B6010E94B52E20E0E5
:1003A00030E040E054E30E94B52E20E030E04AEF18
:1003B00054E40E94EC2C20E030E048EC52E40E942F
:1003C0005D2D69837A838B839C8360930B03709389
:1003D0000C0380930D0390930E03609102017091C2
:1003E000030180910401909105016D837E838F83C9
:1003F000988720E030E040EA58E40E94582D609150
:10040000EF027091F002811149C080E090E00E94FB
:10041000FE2D20E030E040E058E40E94B52E4B0174
:100420005C016091EB027091EC0280E090E00E9430
:10043000FE2DA70196010E94B52E20E030E040E895
:100440005CE30E94B52E9B01AC01C501B4010E9482
:10045000EC2C4B015C016091F1027091F20280E0A2
:1004600090E00E94FE2D20E030E040E857E40E943A
:10047000B52E2B013C016091ED027091EE0280E0FF
:1004800090E00E94FE2D9B01AC01C701B6010E94C5
:10049000B52E20E030E040E05CE348C080E090E032
:1004A0000E94FE2D20E030E040E857E40E94B52E87
:1004B0004B015C016091EB027091EC0280E090E0F6
:1004C0000E94FE2DA70196010E94B52E20E030E08B
:1004D00040E05CE30E94B52E9B01AC01C501B40174
:1004E0000E94EC2C4B015C016091F1027091F202D0
:1004F00080E090E00E94FE2D20E030E040E057E4F4
:100500000E94B52E2B013C016091ED027091EE022C
:1005100080E090E00E94FE2D9B01AC01C701B60176
:100520000E94B52E20E030E040E85BE30E94B52E4B
:100530009B01AC01C301B2010E94EC2C9B01AC01F8
:1005400069857A858B859C852D873E874F87588B5B
:100550000E94FE2D2D853E854F8558890E94B52E1F
:1005600020E030E040E055E30E94B52EA501940163
:100570000E94EB2C2D813E814F8158850E945D2D7C
:1005800020E030E040E251E40E945D2D60931303CF
:100590007093140380931503909316032091130313
:1005A00030911403409115035091160360E070E8F8
:1005B0008CE794E40E94EB2C905826E031EC4EED51
:1005C00052E40E945D2D60930F037093100380939B
:1005D00011039093120389819A81AB81BC8180932E
:1005E0000B0390930C03A0930D03B0930E0360963E
:1005F0000FB6F894DEBF0FBECDBFDF91CF91FF9055
:10060000EF90DF90CF90BF90AF909F908F907F90B2
:100610006F905F904F90089586E70E94C91E88E50D
:1006200090E00E94491C0C94E51E86E70E94C91EBA
:1006300088E490E00E94491C0C94E51ECF93DF9360
:1006400089E60E94C91E8BE390E00E94491C10922B
:10065000C00664E170E089E690E00E943E1FC2E4BB
:10066000D3E09091BE068091BD06981731F081E9E4
:1006700096E00E94D4008993F4CFDF91CF91089542
:1006800060E085E00E94081664EF71E080E090E091
:100690000E94741661E085E00C94081602C09595DE
:1006A00087956A95E2F7092E000CAA0BBB0B2091E7
:1006B00070002E7F209370002091B0002C7F20933B
:1006C000B0002091B100277F2093B1002091B600A7
:1006D0002F7D2093B600209170002D7F2093700015
:1006E0002091B10024602093B1002091B1002C7FB3
:1006F0002093B10023E830E030936A03209369032C
:100700000097A105B10521F481E090E0A0E0B0E000
:100710008093610390936203A0936303B093640397
:100720008EE895E090935F0380935E0310926503DB
:100730001092660310926703109268031092600390
:100740008091690390916A038093B2008091700058
:10075000816080937000089587E480937C0080918D
:100760007A00806480937A0080917A0086FDFCCFC5
:10077000609178008091790070E0782B072E000C52
:10078000880B990B0E94002E27E230EA49E85BE3D0
:100790000E94B52E60931F03709320038093210362
:1007A00090932203089560910F037091100380913C
:1007B00011039091120320E030E040E85FE30E94D3
:1007C000582D87FF02C061E011C060910F03709146
:1007D0001003809111039091120320E030E040EC6F
:1007E0005FE30E94B02E181624F460E089E00C94B8
:1007F0000816089580911B0390911C031816190682
:10080000ECF44091230350912403609125037091EF
:1008100026038091170390911803A0911903B091BA
:100820001A03481759076A077B0740F061E088E020
:100830000E94081661E089E00E9408160895E2E42B
:10084000F3E0808190E0982F88272181822B90937C
:10085000040380930303828190E0982F88272381EB
:10086000822B9093FE028093FD02848190E0982F6A
:1008700088272581822B9093FC028093FB02808540
:1008800090E0982F88272185822B909300038093F6
:10089000FF02828590E0982F88272385822B9093F2
:1008A000F6028093F502848590E0982F88272585AD
:1008B000822B9093F4028093F302868590E0982F28
:1008C00088272785822B90930203809301038089D8
:1008D00090E0982F88272189822B9093FA028093A9
:1008E000F902828990E0982F88272389822B9093A0
:1008F000F8028093F702089571E03D9A3C98000059
:10090000000000003D98A894000000000000359B06
:1009100099D3A2F0889434990894771F70F73D9A80
:10092000803011F03C9801C03C9A000000000000AB
:100930003D98A89400000000359B84D3000000007F
:100940003D9A872F9927089580E208950894881F7B
:1009500001C0880FA9F03D9A00000000000018F4C3
:1009600000003C9802C03C9A00C03D98A89400004A
:1009700000000000359B66D312F488270FC0E9CF32
:100980003D9A000000003C98992788273D98A8943C
:100990000000359B57D38AF3349B81E000000000B0
:1009A0003D9A089581E00895CF93DF93EC01862F5F
:1009B0000E94A604811106C08FA5811106C083E0A4
:1009C0008FA703C081E090E002C080E090E0DF915B
:1009D000CF910895CF93DF9386E70E94C91E60E010
:1009E00081E996E00E94D4040E94E51E63E070E075
:1009F00086E790E00E943E1FC6E5D3E09091BE06D8
:100A00008091BD06981731F081E996E00E94D400EC
:100A10008993F4CFDF91CF910895CF93DF9386E749
:100A20000E94C91E60E081E996E00E94D4040E9401
:100A3000E51E63E070E086E790E00E943E1FC9E596
:100A4000D3E09091BE068091BD06981731F081E900
:100A500096E00E94D4008993F4CFDF91CF9108955E
:100A6000CF93DF93D82FC62F84E40E94C91E6D2F29
:100A700081E996E00E94D4046C2F81E996E00E94FF
:100A8000D404DF91CF910C94E51E0F931F93CF9365
:100A9000DF931F92CDB7DEB7682F84E469830E948D
:100AA000C91E698181E996E00E94D4040E94E51E76
:100AB00084E40E94C91E62E070E084E490E00E9439
:100AC0003E1F81E996E00E94D4008C0181E996E006
:100AD0000E94D40020E030E0382F022B132B0E941C
:100AE000E51EC8010F90DF91CF911F910F910895DE
:100AF0008BE00E94450590930A038093090389E0E7
:100B00000E94450590930803809307038DE00E949F
:100B1000450590930603809305030895CF92DF92D5
:100B2000EF92FF92CF93DF93809140039091410326
:100B3000019690934103809340030E941E030E94FC
:100B40001F04609103037091040385E194E00E9407
:100B5000851C65E472E085E194E00E948515609152
:100B6000FD027091FE0285E194E00E94851C65E41F
:100B700072E085E194E00E9485156091FB0270911E
:100B8000FC0285E194E00E94851C65E472E085E149
:100B900094E00E948515609101037091020385E144
:100BA00094E00E94851C65E472E085E194E00E9477
:100BB00085156091F9027091FA0285E194E00E9436
:100BC000851C65E472E085E194E00E9485156091E2
:100BD000F7027091F80285E194E00E94851C65E4BB
:100BE00072E085E194E00E9485156091FF027091AA
:100BF000000385E194E00E94851C65E472E085E1D4
:100C000094E00E9485156091F5027091F60285E1ED
:100C100094E00E94851C65E472E085E194E00E9406
:100C200085156091F3027091F40285E194E00E94D1
:100C3000851CC0914003D0914103BE010D2E000CD4
:100C4000880B990B0E94002E6B017C01809113048C
:100C500090911404BC01990F880B990B0E94002EEF
:100C600020E030E040E05FE30E94B52E9B01AC0144
:100C7000C701B6010E94B02E87FD0AC080913F03D4
:100C8000882331F00E940D050E940C0310923F034F
:100C90008091130490911404C817D9070CF429C14A
:100CA0000E94EA040E94150381E080933F03809133
:100CB0001A0190911B01892B21F061E081E10E94D2
:100CC00008160E9478050E945C120E94D3030E94BD
:100CD000FA030E9469010E94AC036CE285E194E092
:100CE0000E949C144091150150E060E070E02AE001
:100CF00085E194E00E943D146DE285E194E00E945C
:100D00009C14809114018A3028F460E385E194E01A
:100D10000E949C144091140150E060E070E02AE0D1
:100D200085E194E00E943D146DE285E194E00E942B
:100D30009C14809113018A3028F460E385E194E0EB
:100D40000E949C144091130150E060E070E02AE0A2
:100D500085E194E00E943D1464E585E194E00E9401
:100D60009C1480911201882329F060E385E194E0CE
:100D70000E949C144091120150E060E070E02AE073
:100D800085E194E00E943D146AE385E194E00E94CD
:100D90009C1480911E038A3028F460E385E194E07E
:100DA0000E949C1440911E0350E060E070E02AE035
:100DB00085E194E00E943D146AE385E194E00E949D
:100DC0009C1480911D038A3028F460E385E194E04F
:100DD0000E949C1440911D0350E060E070E02AE006
:100DE00085E194E00E943D1464E472E085E194E0C2
:100DF0000E9485156091090370910A0385E194E0D2
:100E00000E94851C6CE285E194E00E949C14609134
:100E100007037091080385E194E00E94851C6CE251
:100E200085E194E00E949C14609105037091060393
:100E300085E194E00E94851C6CE285E194E00E94CB
:100E40009C14409113035091140360911503709109
:100E5000160385E194E00E94BB1C6CE285E194E0FE
:100E60000E949C1440910F03509110036091110354
:100E70007091120385E194E00E94BB1C6CE285E155
:100E800094E00E949C1440910B0350910C036091DC
:100E90000D0370910E0385E194E00E94BB1C6CE28F
:100EA00085E194E00E949C1460913D0370913E03A3
:100EB00085E194E00E94851C6CE285E194E00E944B
:100EC0009C1440911F035091200360912103709165
:100ED000220385E194E00E94BB1C10924103109212
:100EE000400310923E0310923D0360E081E10E94B6
:100EF000081685E194E0DF91CF91FF90EF90DF90AD
:100F0000CF900C9486141F93CF93DF931F92CDB78D
:100F1000DEB7682F84E469830E94C91E698181E974
:100F200096E00E94D4040E94E51E84E40E94C91E3B
:100F300061E070E084E490E00E943E1F81E996E069
:100F40000E94D400182F0E94E51E812F0F90DF9180
:100F5000CF911F9108953D9A3C9A88D03D9886D0B4
:100F6000359B70D03C9882D00895EF92FF921F93EA
:100F7000CF93DF9300D0CDB7DEB74A8369830E9459
:100F8000C91E698181E996E00E94D4044A81642FD8
:100F900081E996E00E94D40481E9E82E86E0F82EEB
:100FA000F70117A50E94AB07F70116A617A6412F58
:100FB00050E060E070E02AE084E793E00E943D1496
:100FC00065E070E080E090E00E947416812F0F9041
:100FD0000F90DF91CF911F91FF90EF9008958F9325
:100FE0008F918F93359B2ED03C9A40D0AFDC8823D5
:100FF00011F4B1DFF5CF0F90089508953D9A36D0E2
:101000003C9834D03D9832D0359B1CD03C9A2ED0A1
:101010009DDC089581E00895359B14D03C9A26D03C
:1010200095DC089581E008953C983D984498459852
:1010300088279927349B0895359B089581E008956A
:1010400081E00895B0E0A8EC002409D032F40A94BD
:10105000E1F71197C9F7289408C0A89406C0A8948E
:10106000359901C0289400000895089508950895C1
:10107000FC01148615861382128288EE93E0A0E0AC
:10108000B0E084839583A683B78386E291E0918361
:1010900080830895BF92CF92DF92EF92FF920F93D9
:1010A0001F93CF93DF93CDB7DEB7C856D1090FB6E4
:1010B000F894DEBF0FBECDBF50911D0340911E03BB
:1010C000309112012091130190911401809115012A
:1010D0001F925F931F924F931F923F931F922F93E4
:1010E0001F929F931F928F9387E492E09F938F9319
:1010F0008E010F5F1F4F1F930F930E94BC2FCE01D5
:10110000CD960E9438088DE3E82EF12CEC0EFD1EE2
:101110008CE0E80EF11C46E4B801C7010E94BE1C39
:1011200080E2FE01E75BFF4FA1E2B4E001900D9287
:101130008A95E1F721968EAD9FAD21979093180483
:101140008093170425968CAD9DADAEADBFAD2597B0
:101150008093190490931A04A0931B04B0931C0469
:1011600029968CAD9DADAEADBFAD299780931D0482
:1011700090931E04A0931F04B09320040FB6F8941C
:10118000DEBF0FBECDBF95E6C92E92E0D92EBF2C93
:1011900020E2F22E20912104211160C061E084E060
:1011A0000E94081620913B0330913C032F5F3F4F74
:1011B00030933C0320933B033F932F93DF92CF92D6
:1011C0001F930F930E94BC2FCE01CD960E9438082A
:1011D00042ECB8018E2D9B2D0E94BE1CFE01E75BE8
:1011E000FF4FA1E2B4E08F2D01900D928A95E1F7B7
:1011F00021968EAD9FAD219790931804809317048C
:1012000025968CAD9DADAEADBFAD259780931904ED
:1012100090931A04A0931B04B0931C0429968CADE0
:101220009DADAEADBFAD299780931D0490931E0474
:10123000A0931F04B09320040F900F900F900F9075
:101240000F900F90B80184E793E00E948A1464E63F
:1012500070E080E090E00E9474169CCF60E084E033
:101260000E9408166FE672E085E194E00E948A14FD
:1012700082E990E090935D0380935C03B80184E77A
:1012800093E00E948A14C859DF4F0FB6F894DEBF6E
:101290000FBECDBFDF91CF911F910F91FF90EF90C7
:1012A000DF90CF90BF900895CF93DF931F92CDB77B
:1012B000DEB7BE016F5F7F4F0E942C1A019719F4B1
:1012C000898190E002C08FEF9FEF0F90DF91CF9167
:1012D00008950C960C9454098F929F92AF92BF92EE
:1012E000CF92DF92EF92FF92CF93DF93EC018C8C41
:1012F0009D8CAE8CBF8CC88CD98CEA8CFB8C0C96E8
:101300000E94540997FD08C08C8E9D8EAE8EBF8EB4
:10131000C88ED98EEA8EFB8EDF91CF91FF90EF9031
:10132000DF90CF90BF90AF909F908F9008953F92A5
:101330004F925F926F927F928F929F92AF92BF92E5
:10134000CF92DF92EF92FF920F931F93CF93DF9391
:10135000CDB7DEB728970FB6F894DEBF0FBECDBF6E
:101360004C01DC0112968C911297806812968C9336
:1013700012971C964D905D906D907C901F971696DD
:10138000AD90BC901797411451046104710461F44D
:10139000D50118968D919D910D90BC91A02D8D83B6
:1013A0009E83AF83B88704C04D825E826F82788649
:1013B000CD80DE80EF80F884BFEFCB1ADB0AEB0A2A
:1013C000FB0AF501808D918DA28DB38D8C159D0545
:1013D000AE05BF0528F482E0C82ED12CE12CF12CFB
:1013E0009E012F5F3F4FB701A601C5010E946319FF
:1013F00087FD20C0882341F089819A81AB81BC811F
:10140000892B8A2B8B2B51F08D819E81AF81B885E2
:10141000C816D906EA06FB0679F60CC00FEF1FEFD7
:101420002FEF3FE0B701A601C5010E940019382E39
:10143000811102C0312C1BC041145104610471049C
:1014400051F097018601B301A201C5010E94001964
:10145000811108C0EFCFD5011896CD92DD92ED92A3
:10146000FC921B97F401C486D586E686F786832D09
:1014700028960FB6F894DEBF0FBECDBFDF91CF9197
:101480001F910F91FF90EF90DF90CF90BF90AF90A2
:101490009F908F907F906F905F904F903F900895B6
:1014A000FF920F931F93CF93DF931F92CDB7DEB7B9
:1014B0008C01FC0180899189A289B3899C01AD01CD
:1014C00075E056954795379527957A95D1F7F22F80
:1014D000FF70FF2E11F0611114C0BE016F5F7F4FCE
:1014E000C8010E942C1A813019F080E090E01AC0E7
:1014F000F80180899189A289B3894F96A11DB11DF8
:1015000004C08096A11DB11DF801808B918BA28B28
:10151000B38BF801868197818796F0E2FF9E800D5C
:10152000911D11240F90DF91CF911F910F91FF908A
:101530000895CF92DF92EF92FF921F93CF93DF93A4
:10154000EC016A017B01122F8B819C81AD81BE81F0
:1015500084179507A607B707F1F0CE010E94D319AB
:10156000811103C080E090E01CC012FF06C0188209
:10157000CB82DC82ED82FE820EC0E981FA819E017F
:10158000295F3F4FB701A601808191810E94A01879
:101590008111EDCFE7CF13708881182B1883CE010E
:1015A0000796DF91CF911F91FF90EF90DF90CF9042
:1015B00008956115710579F0FB0101900020E9F7AC
:1015C0003197AF01461B570BDC01ED91FC91028076
:1015D000F381E02D099480E090E008950F931F932C
:1015E000CF93DF93FC012081211102C081E05CC018
:1015F000EC01828187FF4FC04489558966897789CC
:101600008681978121E080960E94990A009729F4AB
:1016100089818160898380E047C02C813D812F7062
:10162000332745E0220F331F4A95E1F7FC01E20F13
:10163000F31F4081453E61F3488143FF08C0488D58
:10164000598D6A8D7B8D448F558F668F778F4C8D2A
:101650005D8D6E8D7F8D8C01020F131FF801538FEE
:10166000428F758B648BE0915C03F0915D03309742
:1016700079F0B9016A5E7F4F680F791F285E3F4F8E
:10168000820F931F0995F801808D918D938B828B2A
:101690008A818F778A838E819F8180960E94D31959
:1016A000882309F4B5CFA2CFDF91CF911F910F917D
:1016B00008954F925F926F927F928F929F92AF9216
:1016C000BF92CF92DF92EF92FF920F931F93CF932F
:1016D000DF93EC014A015B014C845D846E847F845E
:1016E000A881AA2309F491C0488959896A897B890C
:1016F00084169506A606B70609F48DC081149104D8
:10170000A104B10429F41C861D861E861F8678C09C
:10171000A3FF0BC0088D198D2A8D3B8D0815190567
:101720002A053B0508F471C014C0A5FF12C0EE8164
:10173000FF818681978125E0880F991F2A95E1F71F
:10174000A0E0B0E088159905AA05BB0508F45DC0C6
:1017500057C0EE81FF81848190E009968A019B0148
:101760000150110921093109082E04C03695279529
:10177000179507950A94D2F775016401B1E0CB1A69
:10178000D108E108F10804C0F694E794D794C7940F
:101790008A95D2F7C016D106E206F30620F0452B53
:1017A000462B472B81F4A6FF05C0848D958DA68D11
:1017B000B78D04C08C8D9D8DAE8DBF8D8C879D8720
:1017C000AE87BF8704C0C01AD10AE20AF30A8E01AD
:1017D000045F1F4FC114D104E104F10489F04C856A
:1017E0005D856E857F8598018E819F810E9463193A
:1017F00091E0C91AD108E108F10818165CF305C098
:10180000888A998AAA8ABB8A06C04C865D866E86BB
:101810007F8680E001C081E0DF91CF911F910F9121
:10182000FF90EF90DF90CF90BF90AF909F908F9000
:101830007F906F905F904F9008952F923F924F92BC
:101840005F926F927F928F929F92AF92BF92CF9250
:10185000DF92EF92FF920F931F93CF93DF93CDB759
:10186000DEB72D970FB6F894DEBF0FBECDBFFC01DB
:101870003B018A01DA0111960D90BC91A02DB88729
:10188000AF83DB018C91807709F4BBC38081811128
:10189000B8C3DA019C91937009F4A7C38F8198852E
:1018A0000C966DE070E00E94372F6F5F6D832E8382
:1018B00048011F0140E050E0BA01C3010E94590BEA
:1018C000B12CA12CC12CD12C00E010E01D8674019C
:1018D000B6E0EB0EF11CF30180899189A289B389EE
:1018E0009C01AD0165E056954795379527956A951A
:1018F000D1F729873A874B875C8749845A8461E00E
:10190000C3010E94500A009739F4D30111968C91BB
:10191000882309F4A7C075C3FC012081253E11F07E
:1019200021110BC0011102C0B984AA84FD810F17D7
:1019300008F40F5F211106C095C03D81031708F41C
:1019400057C303C0253E09F43FC02E32E9F1DC0144
:101950001B963C911B973F3009F057C0111108C0EE
:1019600026FFB9CF122F1F711D96CC90D12E07C024
:10197000DA942D1129C0FC012585C21225C04D2DF8
:1019800050E041505109FDE0F49F9001F59F300D6A
:1019900011244F81588524173507B0F4FC0160E00D
:1019A000653018F48181928107C06B3018F484810E
:1019B000958102C086819781AF81B8852A173B0740
:1019C00029F4892B09F487CF10E085CF8F3F91054B
:1019D00009F0D0F74FEB480F4A3110F0782F02C0D2
:1019E00070E2780FC9010196D40113964D915C9174
:1019F0001497DA01A20FB31F2C913FEB320F3A314B
:101A000008F4205E7213E0CFF5C233FDDDCF112361
:101A1000B1F0B1E0DB12F5C2FC01AC01455F5F4FF4
:101A200090E060E8969F900111249695922B219169
:101A3000920FE417F507A9F79C11E3C20FC04BE022
:101A400050E0B7010E94A62F892B09F044CFD401A2
:101A50008C9180FF03C0E1E0ED873DCFBE81B7FFF1
:101A6000FBC1CFC28E818274823409F0CAC20023C6
:101A700051F04B2C5A2C07C060E0C3010E94500A61
:101A8000892B29F00F5FFD810F17B0F376C0F301AA
:101A90008181882309F471C0B4C2D3018C9185FD82
:101AA000B0C250968D919D910D90BC91A02D811545
:101AB0009E4FAF41B10508F0A4C2C3010E9497092F
:101AC000882309F49EC2D3011696ED91FC911797D5
:101AD0001C96CD90DD90ED90FC901F97B2E0CB1A54
:101AE000D108E108F108048004C0CC0CDD1CEE1C18
:101AF000FF1C0A94D2F780899189A289B389C80E04
:101B0000D91EEA1EFB1E25E0B701A601CF01809673
:101B10000E94990A5C01009709F473C2FC0120E05D
:101B200032E0119221503040E1F711E0F3010680DC
:101B3000F781E02DFA87E9878281181718F190E084
:101B4000A0E0B0E029E0880F991FAA1FBB1F2A95CB
:101B5000D1F7F3014089518962897389840F951FF8
:101B6000A61FB71F808B918BA28BB38BA985BA85DB
:101B700012968C918230C0F4005FED810E1708F44C
:101B80008CCF12C09501B701A601410F511D611DF7
:101B9000711DA985BA858D919C910E943B1888235F
:101BA00009F42FC21F5FC2CFBD85BB2309F470C0EB
:101BB000D4011596DC9002E010E08EE7C82E740187
:101BC000B6E0EB0EF11C3FC0F3E0FD1510F4A3E00E
:101BD000DA2E94E09D0D822F8F70E92FF0E08A308D
:101BE00008F04FC0805DE80DF91D8683F4E036955E
:101BF0002795FA95E1F79150D91668F3F401ED0DA8
:101C0000F11DC68240E050E0BA01C3010E94590BA9
:101C100061E0C3010E94500A0097A9F1FC012081F4
:101C20002223B1F1238523FDF3CF4BE050E0BC012B
:101C3000C7010E94A62F892B59F70F5F1F4F04364B
:101C4000110509F4DEC1F401818192819801280F08
:101C5000391F0380F481E02D8E0F9F1FE817F907CD
:101C600009F4B2CFA901B5E0440F551FBA95E1F7C9
:101C7000240F351F4191042E000C550B24273527C6
:101C8000EDCF895CB0CFD30111968C918111B9C190
:101C9000A20160E070E0E5E0440F551F661F771F6A
:101CA000EA95D1F7C3010E94590B882309F4A9C111
:101CB0001D811150012F3FE0B32E7401F6E0EF0EAD
:101CC000F11C640121E1C20ED11C4DE0A42E0023C1
:101CD00009F467C060E0C3010E94500AFC01892B2F
:101CE00009F48FC1D30116962D913C911797D90114
:101CF00090968C919097816090968C93602F0113B1
:101D000001C060646083B3861486D70120E030E8A8
:101D1000239FC00111242695282B9D91290FAC15D6
:101D2000BD05A9F72587138E128ED40113964D9108
:101D30005C9114976F7170E061507109A69E9001DB
:101D4000A79E300D112460E08F81988528173907F0
:101D500040F4DA01A20FB31F8C91082E000C990BEE
:101D60000CC081E090E0AF81B8852A173B0711F4E1
:101D700080E090E0919581959109653018F4928307
:101D8000818307C06B3018F49583848302C09783E6
:101D900086836F5F2F5F3F4F32966D30A9F60150FB
:101DA00096CFF301408951896289738925E0769540
:101DB0006795579547952A95D1F72A0160E0C301A9
:101DC0000E94500A7C01892B09F41BC180E2D701D3
:101DD0001D928A95E9F7F40136968BE0D7010190C0
:101DE0000D928A95E1F7F40180818871D7011C96E4
:101DF0008C93E0915C03F0915D03309739F0B7016B
:101E0000625F7F4FC7014096099509C081E298E261
:101E1000F701918B808B80E098E097878687D701C8
:101E200050968D919C91519753969C938E93529777
:101E300059969C938E9358971E968D919C911F97BF
:101E400057969C938E935697D3011696ED91FC91DD
:101E5000179780A1816080A380E2F10111928A9599
:101E6000E9F7D3011696ED90FC901797F101F782F0
:101E7000E682558244825C968D919D910D90BC9135
:101E8000A02D80879187A287B387F201EF70FF278B
:101E9000D701979695E0EE0FFF1F9A95E1F79D0108
:101EA0002E0F3F1FD9011B968C9183FF03C0F101B8
:101EB0001082A7C0C7018E0F9F1FDC01D2968C91A4
:101EC0008771D1018C93D9011B969C91987119F45B
:101ED0008860D1018C93D10113961C9313978E8146
:101EE000827319F08C91817111F78E818F70D101FD
:101EF00012968C93D70193964D915D916D917C9143
:101F00009697D10154964D935D936D937C9357971B
:101F1000EE0DFF1D83AC94ACA12CB12CB401552760
:101F200044279F012F5B3F4FD9018D909C90A12C9E
:101F3000B12C842A952AA62AB72ABE81B4FF33C0C1
:101F400081149104A104B10409F45DC09E012F5FC6
:101F50003F4FB501A401C7010E946319D82E87FD28
:101F6000A6CF00E010E09801B501A401C7010E94CE
:101F70000019882309F49BCFF701408551856285BC
:101F8000738584169506A606B70620F4808691868A
:101F9000A286B38689809A80AB80BC80D110D6CFD0
:101FA000811131C084CFD1015C968D929D92AD920A
:101FB000BC925F97ED5BFF4F80819181A281B381DD
:101FC000F101808F918FA28FB38FFE81F5FF20C02A
:101FD000D10158964D915D916D917C915B97C101B6
:101FE0000E94590B811114C062CFB1E0BD835FCC58
:101FF00000E0ABCC6F5F32966D3009F46CCC9C0185
:10200000CFCC80E006C0F101828180688283DDCF81
:1020100081E02D960FB6F894DEBF0FBECDBFDF91E5
:10202000CF911F910F91FF90EF90DF90CF90BF90D5
:10203000AF909F908F907F906F905F904F903F9068
:102040002F9008952F923F924F925F926F927F92BE
:102050008F929F92AF92BF92CF92DF92EF92FF92B8
:102060000F931F93CF93DF93EC015B014A018881AB
:1020700083FF0EC08A8181FF0BC082FF0FC0488D95
:10208000598D6A8D7B8DCE010E94590B811106C03E
:102090008981816089838FEF9FEF0FC1A40160E088
:1020A00070E088899989AA89BB8980959095A095C7
:1020B000B09584179507A607B70750F364011E0172
:1020C0008CE0280E311C088919892A893B89C114A2
:1020D000D10409F4D0C08E819F81B901A80129E003
:1020E00076956795579547952A95D1F7DC01139614
:1020F000FC90F4221170F11034C00115110589F51E
:102100004C855D856E857F8541155105610571059D
:1021100069F091010E94631987FDBACF811121C036
:10212000CE010E94970981111CC0B2CF8C8D9D8D6C
:10213000AE8DBF8D0097A105B10579F4CE010E9447
:102140009709882309F4A4CF8C859D85AE85BF852A
:102150008C8F9D8FAE8FBF8F04C08C879D87AE877D
:10216000BF87EE81FF814C855D856E857F854250FE
:10217000510961097109048004C0440F551F661F8D
:10218000771F0A94D2F780899189A289B389480F71
:10219000591F6A1F7B1F4F0D511D611D711D0115B8
:1021A000110521F4C114B2E0DB06B0F580E092E045
:1021B000801B910B76018C159D0508F47C0101159F
:1021C000110579F4488859886A887B88888D998DAB
:1021D000AA8DBB8D481659066A067B0610F025E0CD
:1021E00001C021E0CF0180960E94990A009709F46E
:1021F0004FCFA701B501800F911F0E94B32F0E0D85
:102200001F1D0115124031F58E819F8180960E941D
:10221000D31981111FC03CCF83A194A1A5A1B6A160
:1022200084179507A607B70741F410A28FEF9FEF19
:10223000DC0183A394A3A5A3B6A3EE81FF8195013E
:10224000808191810E943B18882309F421CFE12CE1
:1022500082E0F82E88899989AA89BB898E0D9F1DF5
:10226000A11DB11D888B998BAA8BBB8BAE0CBF1C9B
:10227000CE18DF0828CF488D598D6A8D7B8D8A81D5
:10228000401751076207730728F4088F198F2A8FA8
:102290003B8F06C020915C0330915D03232B11F02E
:1022A00080688A838A8183FD02C0C40106C0CE0192
:1022B0000E94EE0A8111F9CFEBCEDF91CF911F91F1
:1022C0000F91FF90EF90DF90CF90BF90AF909F90D5
:1022D0008F907F906F905F904F903F902F900895D8
:1022E000FC018081811114C080E2DF01982F1D92D2
:1022F0009A95E9F777836683DB0115969C91903177
:1023000019F0903229F480E4808381E0828308957B
:1023100080E00895CF93DF93EC010E94EE0A1882CB
:10232000DF91CF9108953F924F925F926F927F928B
:102330008F929F92AF92BF92CF92DF92EF92FF92D5
:102340000F931F93CF93DF93CDB7DEB760970FB690
:10235000F894DEBF0FBECDBF162F342EC22EDE2C5A
:102360009CE0E4E3F1E09E012F5F3F4F7901D9014A
:1023700001900D929A95E1F7282F30E0225E3F4FB1
:10238000A901330F660B770B2A013B0192E075948C
:102390006794579447949A95D1F7837051F413300A
:1023A00040F080E8882E81E5982EAA24A394B12CD1
:1023B00003C0812C912C54019A01AB0124193509D9
:1023C0004609570960E873E381EE91E00E94272FE8
:1023D0006D877E878F87988BA301920160E075E8F7
:1023E00082EE91E00E94272F4D845E846F8478886E
:1023F000460E571E681E791E480C591C6A1C7B1C11
:102400005701E12FF0E03197C5018E199F098E1712
:102410009F0784F4D5018D915D01A82FB0E020E8DD
:1024200031E541E050E00E94902F460E571E681E95
:10243000791EEACF202F30E0ACE3B0E00E94812F7C
:102440004B015C018D0C911CA11CB11C2C2D30E0AA
:10245000A0E1BEE00E94812F860E971EA81EB91E25
:10246000A32DB0E020E831E541E050E00E94902F3C
:10247000DC01CB01880D991DAA1DBB1DBC01CD013E
:10248000640D751D861D971D60960FB6F894DEBF0E
:102490000FBECDBFDF91CF911F910F91FF90EF90B5
:1024A000DF90CF90BF90AF909F908F907F906F9074
:1024B0005F904F903F900895CF92DF92EF92FF92FE
:1024C0000F931F93CF93DF93CDB7DEB727970FB648
:1024D000F894DEBF0FBECDBF88E60E94C91E80E023
:1024E00090E00E94491C1092C00640E067E088E638
:1024F0000E94FD1ECE0101967C018C016801CE1860
:10250000DF089091BE068091BD06981741F081E9E1
:1025100096E00E94D400F80181938F01EFCF0E94D2
:10252000E51EF7E0CF16D10409F054C08981982F39
:102530009695969596959E71292F220F220F920FB0
:102540008F70890F80931D038A81982F9695969599
:1025500096959E71292F220F220F920F8F70890F4F
:1025600080931E038B81982F9695969596959670DD
:10257000292F220F220F920F8F70890F8093120143
:102580008D81982F9695969596959E71292F220F5D
:10259000220F920F8F70890F809313018E81982FD5
:1025A0009695969596959E71292F220F220F920F40
:1025B0008F70890F809314018F81982F969596952F
:1025C00096959E71292F220F220F920F8F70890FDF
:1025D00080931501E0901D0300911E0320911201CC
:1025E0004091130160911401809115010E94931193
:1025F0006093230370932403809325039093260311
:1026000027960FB6F894DEBF0FBECDBFDF91CF91F6
:102610001F910F91FF90EF90DF90CF900895CF9290
:10262000DF92EF92FF920F931F93CF93DF936C0192
:102630007A018B01C0E0D0E0CE15DF0589F0D8012A
:102640006D918D01D601ED91FC910190F081E02D0D
:10265000C6010995892B11F47E0102C02196ECCFA9
:10266000C701DF91CF911F910F91FF90EF90DF9005
:10267000CF900895FC01538D448D252F30E0842F99
:1026800090E0821B930B541710F0CF96089501979A
:102690000895FC01918D828D981761F0828DDF0184
:1026A000A80FB11D5D968C91928D9F5F9F73928F45
:1026B00090E008958FEF9FEF0895FC01918D828D3A
:1026C000981731F0828DE80FF11D858D90E0089507
:1026D0008FEF9FEF0895FC01918D228D892F90E05F
:1026E000805C9F4F821B91098F739927089584E71F
:1026F00093E00E946B1321E0892B09F420E0822FE4
:102700000895FC01848DDF01A80FB11DA35ABF4FAE
:102710002C91848D90E001968F739927848FA689E0
:10272000B7892C93A089B1898C9180648C93938D07
:10273000848D981306C00288F389E02D80818F7DF7
:1027400080830895EF92FF920F931F93CF93DF93AF
:10275000EC0181E0888F9B8D8C8D981305C0E889F2
:10276000F989808185FD24C0F62E0B8D10E00F5F66
:102770001F4F0F731127E02E8C8DE8120CC00FB67F
:1027800007FCFACFE889F989808185FFF5CFCE0172
:102790000E948113F1CF8B8DFE01E80FF11DE35AEA
:1027A000FF4FF0820B8FEA89FB898081806207C02E
:1027B000EE89FF896083E889F9898081806480835C
:1027C00081E090E0DF91CF911F910F91FF90EF900A
:1027D0000895CF93DF93EC01888D8823C9F0EA89AF
:1027E000FB89808185FD05C0A889B9898C9186FD0A
:1027F0000FC00FB607FCF5CF808185FFF2CFA88907
:10280000B9898C9185FFEDCFCE010E948113E7CF6E
:10281000DF91CF91089580E090E0892B29F00E940C
:10282000771381110C94000008953FB7F8948091BC
:10283000700390917103A0917203B091730326B558
:10284000A89B05C02F3F19F00196A11DB11D3FBFE8
:10285000BA2FA92F982F8827820F911DA11DB11D76
:10286000BC01CD0143E0660F771F881F991F4A9571
:10287000D1F7089508950E94A12F4F925F926F9211
:102880007F92EF92FF920F931F93CF93DF93CDB779
:10289000DEB7A1970FB6F894DEBF0FBECDBF7C01A7
:1028A000FA01CB0119A2223008F42AE08E010F5D53
:1028B0001F4F422E512C612C712CBF01A30192019C
:1028C0000E945F2FF901CA01015011096A3014F406
:1028D000605D01C0695CD8016C93232B242B252BF0
:1028E00061F7B801C7010E94D90AA1960FB6F89402
:1028F000DEBF0FBECDBFDF91CF911F910F91FF9033
:10290000EF907F906F905F904F90089567ED72E029
:102910000C94D90A0F931F93CF93DF93EC010E947D
:10292000D90A8C01CE010E948614800F911FDF917D
:10293000CF911F910F910895DC01ED91FC910190D1
:10294000F081E02D09944F925F926F927F928F9267
:102950009F92AF92BF92CF92DF92EF92FF92CF936E
:10296000DF93EC016A017B01B22E9A01AB01C70132
:10297000B6010E94222F882319F06AED72E027C069
:1029800026013701E89477F82FEF3FEF4FE75FE735
:10299000C301B2010E94222F81110DC02FEF3FEF22
:1029A0004FE75FE7C301B2010E94582D18161CF4CF
:1029B0006EED72E00CC02FEF3FEF4FE75FE4C70111
:1029C000B6010E94B02E18169CF462EE72E0CE01A1
:1029D000DF91CF91FF90EF90DF90CF90BF90AF90BD
:1029E0009F908F907F906F905F904F900C94D90A3A
:1029F0002FEF3FEF4FE75FECC701B6010E94582D64
:102A000087FDE3CF20E030E0A901C701B6010E94B5
:102A1000582D87FF0AC06DE2CE010E949C144C0124
:102A2000F7FAF094F7F8F09402C0812C912CA12CC5
:102A300060E070E080E09FE3AB1441F020E030E024
:102A400040E251E40E945D2DA394F6CF9B01AC01BE
:102A5000C701B6010E94EC2C2B013C010E94CF2D36
:102A60006B017C010E94FE2D9B01AC01C301B201F0
:102A70000E94EB2C2B013C012AE0B701A601CE01FC
:102A80000E943D147C01E80CF91CBB2031F06EE281
:102A9000CE010E949C14E80EF91EDB2CDD2029F1EA
:102AA00020E030E040E251E4C301B2010E94B52EC3
:102AB0002B013C010E94CF2D4B01A12CB12C2AE00F
:102AC000B501A401CE010E943D14E80EF91EC50116
:102AD000B4010E94FE2D9B01AC01C301B2010E9412
:102AE000EB2C2B013C01DA94D9CFC701DF91CF91B8
:102AF000FF90EF90DF90CF90BF90AF909F908F901E
:102B00007F906F905F904F9008950C94D90A1F9218
:102B10000F920FB60F9211242F933F934F935F9311
:102B20006F937F938F939F93AF93BF93EF93FF9395
:102B300084E793E00E948113FF91EF91BF91AF91E1
:102B40009F918F917F916F915F914F913F912F91C5
:102B50000F900FBE0F901F9018951F920F920FB6F7
:102B60000F9211242F938F939F93EF93FF93E091F4
:102B70008403F09185038081E0918A03F0918B03B7
:102B800082FD12C0908180918D038F5F8F732091A1
:102B90008E03821751F0E0918D03F0E0EC58FC4F6A
:102BA000958F80938D0301C08081FF91EF919F915C
:102BB0008F912F910F900FBE0F901F90189583301B
:102BC00081F028F4813099F08230A1F008958730A7
:102BD000A9F08830B9F08430D1F4809180008F7DE5
:102BE00003C0809180008F7780938000089584B522
:102BF0008F7702C084B58F7D84BD08958091B00029
:102C00008F7703C08091B0008F7D8093B0000895CE
:102C10001F93CF93DF93282F30E0F901E654FF4F45
:102C20008491F901EA55FF4FD491F901EE56FF4F17
:102C3000C491CC23C9F0162F81110E94DF15EC2F0F
:102C4000F0E0EE0FFF1FE258FF4FA591B4918FB750
:102C5000F894111105C09C91ED2FE095E92302C075
:102C6000EC91ED2BEC938FBFDF91CF911F910895E5
:102C7000CF93DF9390E0FC01EA55FF4F2491FC01D4
:102C8000EE56FF4F8491882361F190E0880F991FE1
:102C9000FC01EC58FF4FC591D491FC01E258FF4F65
:102CA000A591B491611109C09FB7F89488812095CE
:102CB00082238883EC912E230BC0623061F49FB78E
:102CC000F8943881822F809583238883EC912E2B72
:102CD0002C939FBF06C08FB7F894E8812E2B2883D2
:102CE0008FBFDF91CF9108958F929F92AF92BF9245
:102CF000CF92DF92EF92FF926B017C010E9415143C
:102D00004B015C01C114D104E104F104F1F00E9413
:102D10001514DC01CB0188199909AA09BB09883E61
:102D20009340A105B10570F321E0C21AD108E10872
:102D3000F10888EE880E83E0981EA11CB11CC11416
:102D4000D104E104F10419F7DDCFFF90EF90DF909B
:102D5000CF90BF90AF909F908F9008952FB7F89429
:102D600060916C0370916D0380916E0390916F037D
:102D70002FBF08951F920F920FB60F9211242F9319
:102D80003F938F939F93AF93BF9380916C039091E8
:102D90006D03A0916E03B0916F0330916B0326E039
:102DA000230F2D3720F40296A11DB11D05C029E87F
:102DB000230F0396A11DB11D20936B0380936C0319
:102DC00090936D03A0936E03B0936F038091700393
:102DD00090917103A0917203B09173030196A11DAC
:102DE000B11D8093700390937103A0937203B0930D
:102DF0007303BF91AF919F918F913F912F910F904E
:102E00000FBE0F901F9018951F920F920FB60F9242
:102E100011242F933F934F935F936F937F938F93DF
:102E20009F93AF93BF93EF93FF93E0911801F091BD
:102E300019010995FF91EF91BF91AF919F918F91EA
:102E40007F916F915F914F913F912F910F900FBEA6
:102E50000F901F9018951F920F920FB60F9211248A
:102E60002F933F934F935F936F937F938F939F9392
:102E7000AF93BF93EF93FF93E0911601F091170189
:102E80000995FF91EF91BF91AF919F918F917F91A4
:102E90006F915F914F913F912F910F900FBE0F90C7
:102EA0001F9018951F920F920FB60F9211242F9317
:102EB0003F934F935F936F937F938F939F93AF93C2
:102EC000BF93EF93FF9378948091690390916A0385
:102ED0008093B2008091650390916603A09167038F
:102EE000B09168030196A11DB11D80936503909375
:102EF0006603A0936703B093680340916503509104
:102F000066036091670370916803809161039091FB
:102F10006203A0916303B0916403481759076A07DD
:102F20007B07B0F080916003811112C081E0809333
:102F3000600310926503109266031092670310926B
:102F40006803E0915E03F0915F03099510926003BE
:102F5000FF91EF91BF91AF919F918F917F916F9171
:102F60005F914F913F912F910F900FBE0F901F9047
:102F700018958EBD0DB407FEFDCF08958FEF8EBD61
:102F80000DB407FEFDCF8EB50895CF93DF93FC01FE
:102F90002381222361F0EC010180F281E02D61E0C8
:102FA00082810E9408168FEF0E94B9171B82DF9161
:102FB000CF910895CF93DF93FC012381211110C09D
:102FC000EC010180F281E02D908181819CBD8DBD5D
:102FD000E981FA8160E082810E94081681E08B839A
:102FE000DF91CF910895EF92FF921F93CF93DF93DC
:102FF00000D000D0CDB7DEB77C01162F29833A83ED
:103000004B835C83FC018381811103C0C7010E9453
:10301000DA170E94161A812F80640E94B9178C81DA
:103020000E94B9178B810E94B9178A810E94B91733
:1030300089810E94B917112311F087E801C085E941
:103040000E94B9171C3011F40E94BE1710E00E94B4
:10305000BE17F701848387FF04C01F3F11F01F5F75
:10306000F6CF0F900F900F900F90DF91CF911F919F
:10307000FF90EF9008950F931F93CF93DF93EC0190
:1030800089018D81833039F089E0440F551F661F17
:10309000771F8A95D1F79A01AB0168E1CE010E94B2
:1030A000F317882311F082E32DC08EEF0E94B91729
:1030B000F80180818EBD818132961E5F0DB407FEBE
:1030C000FDCF8EBDE017F10711F08191F7CF0DB460
:1030D00007FEFDCF8FEF0E94B9178FEF0E94B9173F
:1030E0000E94BE178C838F71853031F086E588830E
:1030F000CE010E94C51707C00E94161A182F811111
:1031000007C089E58883CE010E94C51710E012C070
:1031100020E030E0A9016DE0CE010E94F31781119B
:1031200004C00E94BE17882311F089E2EBCFCE01C4
:103130000E94C517812FDF91CF911F910F910895A4
:10314000EF92FF920F931F93CF93DF93EC017901DE
:103150008D81833039F089E0440F551F661F771F3A
:103160008A95D1F79A01AB0161E1CE010E94F31774
:10317000882319F080E3888338C00E94AE168B0143
:103180000E94BE178C838F3F49F40E94AE16601BCD
:10319000710B6D327140A0F384E503C08E3F31F0B6
:1031A00080E58883CE010E94C5171FC08FEF8EBDBA
:1031B000F701D701A150BE4F9FEF0DB407FEFDCF21
:1031C0008EB59EBD8193EA17FB07B9F70DB407FED4
:1031D000FDCF8EB58C931C820E94BE170E94BE1735
:1031E000CE010E94C51781E004C0CE010E94C51720
:1031F00080E0DF91CF911F910F91FF90EF900895A4
:103200008F929F92AF92BF92CF92DF92EF92FF92F6
:103210000F931F936A017B0148015901FC0125812D
:10322000203251F54489558966897789970186014D
:10323000E7E03695279517950795EA95D1F7400F62
:10324000511F621F731F23E080960E94990A009706
:1032500011F480E02DC0E894C7F8DD24EE24FF24AB
:10326000CC0CDD1CCC0CDD1CFC01EC0DFD1D8082AA
:103270009182A282B3821BC0203159F7FC0144899C
:103280005589668977894D0D511D611D711D23E09A
:1032900080960E94990A0097E1F2DD24EE24FF2433
:1032A000CC0CDD1CFC01EC0DFD1D9182808281E0C7
:1032B0001F910F91FF90EF90DF90CF90BF90AF9054
:1032C0009F908F900895CF92DF92EF92FF920F938D
:1032D0001F93CF93DF93EC016A017B0189018D81FC
:1032E000803251F58C899D89AE89BF89E7E076955A
:1032F000679557954795EA95D1F7480F591F6A1F6B
:103300007B1F22E0CE0180960E94990A009711F45B
:103310008FEF40C0E894C7F8DD24EE24FF24CC0CE6
:10332000DD1CCC0CDD1CFC01EC0DFD1D80819181B0
:10333000A281B381BF701DC0803151F74C895D8976
:103340006E897F894D0D511D611D711D22E0CE01D9
:1033500080960E94990A0097D9F2DD24EE24FF247A
:10336000CC0CDD1CFC01EC0DFD1D80819181A0E0E9
:10337000B0E0488D598D6A8D7B8D481759076A07D3
:103380007B0738F0F80180839183A283B38381E0C7
:1033900001C080E0DF91CF911F910F91FF90EF90DE
:1033A000DF90CF900895EF92FF921F93CF93DF931A
:1033B000FC01208120FF32C0EC017C01F7E0EF0E20
:1033C000F11C4B815C816D817E81E981FA819701DD
:1033D000808191810E943B18182F811102C010E05A
:1033E0001EC0888181FD04C088818E7F888317C0BC
:1033F000E981FA8144855585668577858B819C8135
:10340000AD81BE81480F591F6A1F7B1F97018081C4
:1034100091810E943B188111E7CFE1CF11E0812F0C
:10342000DF91CF911F91FF90EF900895CF93DF939D
:103430000E94AE16EB010E94BE178F3F49F00E941A
:10344000AE166C1B7D0B69357240A8F380E001C09D
:1034500081E0DF91CF9108958F929F92AF92BF92BA
:10346000DF92EF92FF920F931F93CF93DF93EC01C4
:103470007B019881992309F442C08A8180FF3FC073
:1034800093FF48C0488D598D6A8D7B8D08891989B5
:103490002A893B89401B510B620B730B423051054B
:1034A0006105710590F1488959896A897B898A018A
:1034B000117095FD48C0EE81FF81D3804A015B0108
:1034C00089E0B694A794979487948A95D1F7D820E9
:1034D0000115110509F064C0D11062C0452B462BBF
:1034E000472B09F442C04C855D856E857F859E0122
:1034F000245F3F4FCF010E94631987FF46C0898137
:10350000826089838FEF9FEF89C0452B462B472B25
:1035100051F610C095FFC7CFEE81FF81868197815C
:1035200025E0880F991F2A95E1F7288939898217A4
:10353000930719F480E090E06DC0488959896A8941
:103540007B898A01117099E0769567955795479523
:103550009A95D1F7EE81FF81848D958DA68DB78DDB
:10356000480F591F6A1F7B1F39C096FF05C0848D05
:10357000958DA68DB78D04C08C8D9D8DAE8DBF8D24
:103580008C879D87AE87BF870BC0811109C088815A
:10359000807709F4B4CF81E090E021E030E03CC0D6
:1035A000EE81FF814C855D856E857F854250510996
:1035B00061097109048004C0440F551F661F771FFD
:1035C0000A94D2F780899189A289B389480F591F3B
:1035D0006A1F7B1F4D0D511D611D711D8E819F81C5
:1035E00020E080960E94990A009709F488CFFC0198
:1035F000E00FF11F8081F701808388899989AA896A
:10360000BB890196A11DB11D888B998BAA8BBB8BA1
:1036100081E090E020E030E0821B930BDF91CF91BE
:103620001F910F91FF90EF90DF90BF90AF909F9010
:103630008F9008958F929F92AF92BF92CF92DF9218
:10364000EF92FF92CF93C82F1092460481E090E052
:10365000A0E0B0E08093490490934A04A0934B0407
:10366000B0934C0481E494E09093630480936204EB
:10367000109261048FEF9FEFDC01809364049093BC
:103680006504A0936604B0936704CC2331F1C53080
:1036900008F0DCC020E040E050E0BA0181E694E0B0
:1036A0000E94990A009709F4D1C020E1C29F800DC1
:1036B000911D11244097FC01E254FE4F20812F7789
:1036C00009F0C4C0389680809180A280B3808114B4
:1036D0009104A104B10421F4B9C0812C912C5401AE
:1036E00020E0B501A40181E694E00E94990AFC0162
:1036F000892B09F4ABC0838594858115924009F02C
:10370000A5C08089823009F0A1C046855785411542
:10371000510509F49BC02585209343048FEF820F48
:103720008093440480E091E0291751F031E0380F94
:10373000393019F48093450489C0990F832FF4CF51
:1037400080934504C688D788C114D10419F0E12CB0
:10375000F12C04C0C4A0D5A0E6A0F7A0C0924D04EF
:10376000D0924E04E0924F04F0925004D501C4016F
:10377000840F951FA11DB11D80935504909356048D
:10378000A0935704B0935804218932893093480498
:1037900020934704CC0CDD1CEE1CFF1CC80ED91E68
:1037A000EA1EFB1EC0925D04D0925E04E0925F04AC
:1037B000F092600455E0220F331F5A95E1F7215033
:1037C0003E4F232F33272695C20ED31EE11CF11C3A
:1037D000C0925104D0925204E0925304F0925404E7
:1037E000238934892115310521F0C901A0E0B0E019
:1037F00004C080A191A1A2A1B3A1B501A4014C195B
:103800005D096E097F09480F591F6A1F7B1F0090D1
:10381000450404C076956795579547950A94D2F765
:10382000DB01CA010196A11DB11D8093590490933B
:103830005A04A0935B04B0935C04453F8FE05807A3
:103840006105710528F48CE08093460480E017C080
:10385000453F5F4F6105710510F480E10DC084A5FF
:1038600095A5A6A5B7A580935D0490935E04A0934B
:103870005F04B093600480E28093460481E0CF91BE
:10388000FF90EF90DF90CF90BF90AF909F908F9080
:103890000895682F81E996E00C94D404CF92DF92CA
:1038A000EF92FF92CF93DF936C01990FEE08FF0820
:1038B000F7FE16C06DE284E793E00E949C14EC01D1
:1038C00044275527BA014C195D096E097F092AE082
:1038D00084E793E00E943D147C01EC0EFD1E08C0BD
:1038E0002AE0B701A60184E793E00E943D147C0121
:1038F00084E793E00E9486148E0D9F1DDF91CF9187
:10390000FF90EF90DF90CF900895CF92DF92EF92EB
:10391000FF920F931F93CF93DF936B01770FEE0806
:10392000FF08F7FE1BC0EC016DE20E949C148C01A5
:1039300044275527BA014C195D096E097F092AE011
:10394000CE010E943D14800F911FDF91CF911F91F6
:103950000F91FF90EF90DF90CF9008952AE0B7018C
:10396000A601DF91CF911F910F91FF90EF90DF9013
:10397000CF900C943D1422E00C94A3142F923F920C
:103980004F925F926F927F928F929F92AF92BF926F
:10399000CF92DF92EF92FF920F931F93CF93DF931B
:1039A000CDB7DEB7E4970FB6F894DEBF0FBECDBF3C
:1039B0006C017B01942E19821A82DC018C91811199
:1039C0006DC180916806807709F468C1FB01808130
:1039D0008F32C9F47F0181918F32E1F360916E06DD
:1039E00070916F06811104C0C6010E9470115BC105
:1039F000CE0101960E947011882309F44FC1BE01C7
:103A00006F5F7F4F02C068E676E05E01B2E3AB0E07
:103A1000B11CF7012FEFE21AF20A80818032C9F35C
:103A2000FDA3ECA3DF019D012E1B3F0B8D9188238D
:103A3000D9F08F32C9F08C3509F430C1982F977FB7
:103A4000923209F42BC18A3309F428C1982F9F7B45
:103A50009C3309F423C192EC980F923008F41EC1F4
:103A600080528F3500F31AC1AF01420F531FCA01B4
:103A70007C01DC012D91CD012AAB2032C9F32F321C
:103A8000B9F39A012E1B3F0B4E175F0741F0DA0185
:103A90009E91AD019E32A9F3903299F303C080E06C
:103AA00090E006C0C9012F3F310511F00CF0F6C0BF
:103AB0009BA38AA3DE01979620E22D93AA15BB054E
:103AC000D9F7DF019D012E1B3F0B4D914E32D1F3F3
:103AD0004032C1F33CAB2BAB51E0232B09F050E05B
:103AE0008C010150110938F09F01200F311FD901BD
:103AF0002C912E32B1F76EA027E0722E312C512C72
:103B0000812C38E0432EABA9BCA9A817B9070CF04B
:103B100080C02BA93CA92E0F3F1FD9014C914032E8
:103B200009F460C04E3239F42BA93CA902171307DF
:103B300009F058C004C04232A1F04C3791F026ED94
:103B4000240F263010F44D3261F426EC240F263079
:103B500040F025EA240F233020F02FED240F2E35DE
:103B600030F0ABA9BCA9A017B10781F43FC02BA9C5
:103B70003CA920173107D1F1731410F1242F3FE92C
:103B8000340F3A3140F44052842809C07314C0F015
:103B900050E04FE52FE521542A3108F4542822241F
:103BA0002394230C27E230E02C0F3D1F230D311D01
:103BB000D9014C93B6E0B215B8F0622C322C22C079
:103BC0003AE0731609F46CC0ABA9BCA90A171B072D
:103BD0000CF466C01CAB0BAB5AE0752EA8E03A2E75
:103BE000B0E14B2E50E00EC0322C0CC02AE0721611
:103BF00009F456C01CAB0BAB2AE0722E38E0332E12
:103C000040E1442E2BA93CA92F5F3F4F3CAB2BAB8F
:103C10007ACF6EA28FA1803209F440C0552339F0CB
:103C2000582011F4882D01C082E089A314C081E0DE
:103C300089A38EA190E0E7E2F0E0EC0FFD1FE80F12
:103C4000F91F2EE72083E8E2F0E0EC0FFD1FE80FFC
:103C5000F91F21E32083FAA9FF23C1F021E0AE017F
:103C60004F5D5F4FC6010E941D0C8823B9F0F6011D
:103C7000DE01119680E201900D928A95E1F7C6016E
:103C80000E948A11BE016F5F7F4FC3CE292DAE0106
:103C90004F5D5F4FC6010E941D0C05C080E003C050
:103CA0006EA250E0B7CFE4960FB6F894DEBF0FBE19
:103CB000CDBFDF91CF911F910F91FF90EF90DF90DB
:103CC000CF90BF90AF909F908F907F906F905F90BC
:103CD0004F903F902F9008951F93CF93DF93D82F4D
:103CE000682F81E00E9430056FE382E00E9430057A
:103CF00060E083E00E94300581E00E948307182F76
:103D000082E00E9483078F3311F4C1E01D13C0E0ED
:103D100083E00E9483078111C0E08C2FDF91CF9157
:103D20001F910895CF93DF93EAECF0E08491E6EBE6
:103D3000F0E0D491E2EAF0E0C491CC2391F081115B
:103D40000E94DF15EC2FF0E0EE0FFF1FE857FF4F4A
:103D5000A591B491EC91ED2381E090E021F480E015
:103D600002C080E090E0DF91CF910895CF93DF9380
:103D7000AB01BC012AE084E793E00E943D14EC0112
:103D800084E793E00E9486148C0F9D1FDF91CF91F2
:103D90000895CF93C091BF06880FCC2351F00E94A5
:103DA000FE07811102C082E001C080E08093C0065E
:103DB00007C00E940C08811101C0C2E0C093C00678
:103DC00081E08093BF06CF9108950F931F93CF9307
:103DD000DF931F92CDB7DEB701E916E0F80187A5A2
:103DE00089830E94AB07F80116A617A689810F9058
:103DF000DF91CF911F910F910895EF92FF920F9352
:103E00001F93CF93DF93D42FC62F613208F0C0E207
:103E1000880F81600E94FE079091C006911105C035
:103E2000811103C082E08093C00600E010E0EC2E18
:103E3000F12C81E0E81AF1080C1770F481E00E15FE
:103E40001F0509F080E00E947C04F801EF56F94F4D
:103E500084870F5F1F4FF0CF1092BD06C093BE0640
:103E6000DD2321F01092BF060E94AB078C2FDF915B
:103E7000CF911F910F91FF90EF90089541E00C9426
:103E8000FD1ECF93DF93CDB7DEB7C459D1090FB66E
:103E9000F894DEBF0FBECDBF789484B5826084BD38
:103EA00084B5816084BD85B5826085BD85B581603E
:103EB00085BD80916E00816080936E0010928100BC
:103EC0008091810082608093810080918100816077
:103ED0008093810080918000816080938000809138
:103EE000B10084608093B1008091B00081608093C4
:103EF000B00080917A00846080937A0080917A008B
:103F0000826080937A0080917A008E7F80937A001D
:103F100080917A00806880937A001092C100E091CD
:103F20008403F091850382E08083E0918003F09127
:103F300081031082E0918203F091830388E0808303
:103F400010928C03E0918803F091890386E08083CE
:103F5000E0918603F0918703808180618083E09106
:103F60008603F0918703808188608083E0918603D7
:103F7000F0918703808180688083E0918603F091CF
:103F8000870380818F7D808361E081E10E94381604
:103F900061E084E00E94381661E088E00E943816F3
:103FA00061E089E00E94381662E080E10E943816E4
:103FB00060E083E00E94381661E085E00E943816D8
:103FC00061E086E00E94381660E088E00E940816F2
:103FD00060E084E00E94081661E081E10E9408161A
:103FE00060E089E00E94081660E088E00E94081600
:103FF00061E085E00E94081661E086E00E940816F4
:1040000060E082E00E94381660E083E00E9438168B
:1040100062E871E084E793E00E948A141092BD0682
:104020001092BE061092C0061092BF060E9414089D
:1040300066E871E084E793E00E948A14BEE8CB2E24
:10404000B6E0DB2E1AE0E12E02E5902E80E5882E08
:1040500091E4A92E94E0B92E20E2F22E10928B0664
:104060001092880610928D06D0928A06C092890618
:104070000E94AE161B012C016090890670908A0682
:10408000D3011296EC9261E08AE00E94381661E05A
:10409000F30182810E9408161FB7F89480912903CA
:1040A000811127C0ECE9F0E09491E0EBF0E084911D
:1040B000E92FF0E0EE0FFF1FEC58FF4FA591B491F0
:1040C0009C91892321F461E08AE00E94081661E056
:1040D0008AE00E9438168CB580618CBD8CB58064F6
:1040E0008CBD61E08DE00E94381661E08BE00E949B
:1040F0003816809129038F5F809329031FBFE091B9
:104100008906F0918A06908281E0818388E896E0B2
:104110000E94DA17E0918906F0918A0661E08281B7
:104120000E9408161AE08FEF0E94B9171150D9F7B4
:104130008101E0918906F0918A0660E082810E9407
:10414000081620E030E0A90160E088E896E00E94CF
:10415000F317813051F00E94AE16601B710B613D68
:10416000774078F3F0928806A8C02AEA31E040E070
:1041700050E068E088E896E00E94F317853011F47B
:1041800081E00CC074E0772E0E94BE1780938C06ED
:104190007A947110F9CF8A3A59F482E080938D06AF
:1041A00080918D06823069F0412C512C32010EC075
:1041B0000E94AE16601B710B613D7740B0F285E244
:1041C0002EC0412C512C612C60E4762E20E030E092
:1041D000A90167E388E896E00E94F317A301920122
:1041E00069E288E896E00E94F317882349F00E946C
:1041F000AE16601B710B613D774040F383E40FC046
:1042000080918D068230E1F420E030E0A9016AE37C
:1042100088E896E00E94F317882321F087E38093D3
:1042200088064BC00E94BE17807C803C19F453E086
:1042300050938D060E94BE170E94BE170E94BE17A3
:1042400088E896E00E94C517E0918906F0918A06F9
:10425000808281E0818388E896E090934204809395
:10426000410488E696E00E948A1181E00E941A1BB0
:10427000882341F180916806882351F16EE871E04E
:1042800084E793E00E948A1460E081E10E940816AE
:1042900061E084E00E94081668EC70E080E090E045
:1042A0000E94741660E084E00E94081664E670E0E4
:1042B00080E090E00E947416D1CE88E896E00E94DB
:1042C000C517DCCF80E00E941A1B8111D3CFD6CF57
:1042D000E8E6F6E0DF012F2D1D922A95E9F7B0926E
:1042E0006F06A0926E0680914604803131F08032D4
:1042F00029F640E44093680602C0F092680681E027
:1043000080936A0680916806807709F4B7CF88E6C3
:1043100096E09093280380932703CE018D960E9408
:104320003808BE016F5F7F4F6B01CB010E943808D8
:1043300041E063E971E0CE010D960E94BE1C80E26F
:10434000FE013D96DE01D99601900D928A95E1F726
:104350008B819C8198AB8FA78D819E81AF81B88521
:1043600089AB9AABABABBCAB89859A85AB85BC8579
:104370008DAB9EABAFABB8AF89AD882309F42FC32B
:10438000C757DF4F19821882C958D0403E0179E5DE
:10439000670E711C530183E0A80EB11C2E0197E734
:1043A000490E511C4E01A9E78A0E911CFE01E158ED
:1043B000FF4FCF57DF4FF983E883C158D040AE019C
:1043C00043585F4FCD57DF4F59834883C358D04080
:1043D0001E015BE7250E311CD3011C9200E010E0AA
:1043E000CE01C9960E94540998018D3061F12F5F6A
:1043F0003F4FF301E00FF11F80838435E9F42D96E0
:104400008CAD9DADAEADBFAD2D97AC01BD014150A2
:10441000510961097109CB57DF4F488359836A837A
:104420007B83C558D04061E070E0C757DF4F798388
:104430006883C958D04007C02E3131053CF48A301A
:1044400029F08901CDCF2E313105DCF3215031091E
:10445000F301E20FF31F1082D3018C918F3209F424
:104460005CC2223031050CF458C2F30101900020E7
:10447000E9F73197E619F70932970CF44EC2F301C8
:10448000808191818234FDE49F0709F406C2D4F54E
:10449000883445E4940709F43DC2D4F48C3464E4D0
:1044A000960709F432C28235944409F036C2DF928D
:1044B000CF9282EB91E09F938F93BF92AF920E9435
:1044C000DF2F89819A8190931D0180931C0116C270
:1044D0008134A7E49A0709F486C08235994409F02B
:1044E0001CC2DF92CF9282EB91E09F938F93BF9299
:1044F000AF920E94DF2F89819A819093310380933C
:104500003003FCC18035E3E59E0709F4E7C1D4F42C
:1045100084352DE4920709F477C08934934509F076
:10452000FCC1DF92CF9282EB91E09F938F93BF9279
:10453000AF920E94DF2F89819A819093210180930D
:104540002001DCC1833554E5950709F45FC182344D
:10455000974509F0E2C1DF92CF925F924F929F920E
:104560008F92CE57DF4F5881C258D0405F93CF57BC
:10457000DF4F6881C158D0406F93CC57DF4F7881AF
:10458000C458D0407F93CD57DF4F8881C358D04067
:104590008F933F922F9283EA91E09F938F93BF92E4
:1045A000AF920E94DF2FE980D2010C91F4012081AB
:1045B000C158DF4F4881CF57D040EE966FADEE9790
:1045C000D1018C910E94931160931703709318038B
:1045D0008093190390931A03E1E0F0E0F0931C0339
:1045E000E0931B0354C1DF92CF9282EB91E09F9343
:1045F0008F93BF92AF920E94DF2F89819A8190930F
:104600000101809300017AC16DE971E084E793E0D4
:104610000E948515DF92CF925F924F929F928F9268
:10462000CE57DF4F7881C258D0407F93CF57DF4FAE
:104630008881C158D0408F93CC57DF4F9881C458A0
:10464000D0409F93CD57DF4FA881C358D040AF9340
:104650003F922F9283EA91E09F938F93BF92AF9204
:104660000E94DF2FF1010190F081E02DC557DF4F4F
:10467000F983E883CB58D040EF964EAD5FADEF970E
:10468000C357DF4F59834883CD58D040C158DF4FBF
:1046900028813981CF57D040E980FA80D2010D902E
:1046A000BC91A02DC157DF4FB983A883CF58D0400C
:1046B000F4010190F081E02DCF56DF4FF983E883BC
:1046C000C159D04088E6CD56DF4F2883C359D0402A
:1046D000CC56DF4F3883C459D0400E94C91E80E0B9
:1046E00090E00E94491C0AE010E0C701B8010E9456
:1046F0004B2F8F709927A4E0660F771FAA95E1F7DB
:10470000862B972B0E94491CC157DF4F88819981C6
:10471000CF58D040B8010E944B2F8F709927B4E03A
:10472000660F771FBA95E1F7862B972B0E94491CDD
:10473000CF56DF4F88819981C159D040B8010E947E
:104740004B2F6370772724E0660F771F2A95E1F7D8
:104750008F709927862B972B0E94491C81E090E04F
:104760000E94491CCD56DF4F2881C359D040CC56FA
:10477000DF4F3881C459D040C901B8010E944B2F86
:104780008F70992734E0660F771F3A95E1F7862BF3
:10479000972B0E94491CC357DF4F88819981CD58C0
:1047A000D040B8010E944B2F8F70992744E0660FCC
:1047B000771F4A95E1F7862B972B0E94491CC55716
:1047C000DF4F88819981CB58D040B8010E944B2F90
:1047D0008F70992754E0660F771F5A95E1F7862B63
:1047E000972B0E94491C1091C0060E94AB071092A3
:1047F000BF061092C006812F90E00E944E1C63E31A
:1048000072E084E793E00E948A1441C0DF92CF9265
:104810005F924F929F928F92CE57DF4F5881C2582E
:10482000D0405F93CF57DF4F6881C158D0406F931E
:10483000CC57DF4F7881C458D0407F93CD57DF4F9E
:104840008881C358D0408F933F922F9283EA91E0A2
:104850009F938F93BF92AF920E94DF2FE980D20186
:104860000C91F4012081C158DF4F4881CF57D040CF
:10487000EE966FADEE97D1018C910E9493116093EB
:1048800036037093370380933803909339030FB640
:10489000F894DEBF0FBECDBF40C0DF92CF9282EB57
:1048A00091E09F938F93BF92AF920E94DF2F298157
:1048B0003A814B815C81ACE3B0E00E94902F609321
:1048C0002A0370932B0380932C0390932D0382E093
:1048D00090E090931C0380931B0310C0DF92CF9253
:1048E00082EB91E09F938F93BF92AF920E94DF2F54
:1048F00089819A8190931F0180931E010F900F90E0
:104900000F900F900F900F9008C010921B01109203
:104910001A0103C081E08093E602CE018D960E94C9
:104920001701892B09F058CDCE01C9960E948A1132
:10493000C757DF4F48815981C958D040452B09F4EA
:1049400054C065EB71E084E793E00E948515CB5776
:10495000DF4F688179818A819B81C558D0400E9450
:10496000B61EC6010E94380843E663E971E0CE0135
:104970000D960E94BE1C80E2FE013D96DE01D99696
:1049800001900D928A95E1F78B819C8198AB8FA75E
:104990008D819E81AF81B88589AB9AABABABBCAB47
:1049A00089859A85AB85BC858DAB9EABAFABB8AF27
:1049B000CB57DF4F488159816A817B81C558D040F0
:1049C000CE01C9960E94590B61EC71E0CE018D9623
:1049D0000E948515CE01C9960E948A1106C064EC1A
:1049E00071E084E793E00E948A1461E089E00E940C
:1049F000081661E088E00E9408160E94AC0340910E
:104A00001F0350912003609121037091220384E7DA
:104A100093E00E94BB1C6DEC71E084E793E00E9480
:104A20008A1460911F03709120038091210390915B
:104A3000220320E030E040E650E40E94582D87FF3A
:104A400003C082E390E04EC088E60E94C91E8FE05A
:104A500090E00E94491C80E090E00E94491C0E9466
:104A6000E51E0E945C12F0901D030E945C1261E042
:104A700084E00E94081668EE73E080E090E00E94F7
:104A8000741600E010E08091120190E008171907F9
:104A9000BCF46CE271E080E090E00E94741661E08A
:104AA00081E10E94081660E570E080E090E00E94DD
:104AB000741660E081E10E9408160F5F1F4FE3CF7C
:104AC00060E971E080E090E00E94741660E084E0AC
:104AD0000E9408160E945C1280911D038F1104C071
:104AE00084E690E00E94662C60ED71E084E793E03C
:104AF0000E948A1486E70E94C91E8EE190E00E94FF
:104B0000491C0E94E51E65E070E080E090E00E9494
:104B1000741686E70E94C91E82EA90E00E94491C32
:104B20000E94E51E62E070E086E790E00E943E1F72
:104B300086019091BE068091BD06981741F081E9EB
:104B400096E00E94D400D8018D938D01F2CF898127
:104B500090E0982F88272A81822B9093F2028093ED
:104B6000F10286E70E94C91E84EA90E00E94491C77
:104B70000E94E51E62E070E086E790E00E943E1F22
:104B800086019091BE068091BD06981741F081E99B
:104B900096E00E94D400F80181938F01F2CF8981C1
:104BA00090E0982F88272A81822B9093F00280939F
:104BB000EF0286E70E94C91E86EA90E00E94491C27
:104BC0000E94E51E62E070E086E790E00E943E1FD2
:104BD00086019091BE068091BD06981741F081E94B
:104BE00096E00E94D400D8018D938D01F2CF898187
:104BF00090E0982F88272A81822B9093EE02809351
:104C0000ED0286E70E94C91E88EA90E00E94491CD6
:104C10000E94E51E62E070E086E790E00E943E1F81
:104C200086019091BE068091BD06981741F081E9FA
:104C300096E00E94D400F80181938F01F2CF898120
:104C400090E0982F88272A81822B9093EC02809302
:104C5000EB0286E70E94C91E8AEA90E00E94491C86
:104C60000E94E51E62E070E086E790E00E943E1F31
:104C700086019091BE068091BD06981741F081E9AA
:104C800096E00E94D400D8018D938D01F2CF8981E6
:104C900090E0982F88272A81822B9093EA028093B4
:104CA000E90286E70E94C91E8CEA90E00E94491C36
:104CB0000E94E51E62E070E086E790E00E943E1FE1
:104CC000860198012C193D099091BE068091BD0680
:104CD000981741F081E996E00E94D400F801819391
:104CE0008F01EFCF898190E0982F88274A81842B0C
:104CF0009093E8028093E702232B19F488EC90E06C
:104D0000F1CE6CED71E084E793E00E948A1405E037
:104D100010E00E94150364E670E080E090E00E94DD
:104D200074160E940D050E940C0364E670E080E09A
:104D300090E00E9474160E94EA040E94690140916A
:104D4000130350911403609115037091160384E7C7
:104D500093E00E94BB1C60E272E084E793E00E9453
:104D6000851540910F0350911003609111037091CC
:104D7000120384E793E00E94BB1C60E272E084E7C8
:104D800093E00E94851540910B0350910C036091B4
:104D90000D0370910E0322E084E793E00E94A314B8
:104DA00084E793E00E9486140150110909F0B1CF05
:104DB000C0900F03D0901003E0901103F090120305
:104DC00060910F0370911003809111039091120371
:104DD00020E030E040E85FE30E94B02E181654F067
:104DE00020E030E040E85FEBC701B6010E94582D9B
:104DF00087FF43C080E090E0A0EAB8E4809302011E
:104E000090930301A0930401B09305010E946901EE
:104E10004091130350911403609115037091160390
:104E200084E793E00E94BB1C60E272E084E793E0B9
:104E30000E94851540910F0350911003609111035A
:104E40007091120384E793E00E94BB1C60E272E061
:104E500084E793E00E94851540910B0350910C0369
:104E600060910D0370910E0322E084E793E00E94AD
:104E7000A31484E793E00E94861462EE71E084E755
:104E800093E00E948A148DE00E946C1E882309F42E
:104E900035CF6AEE71E084E793E00E948A1408E05F
:104EA00010E00E9478056091090370910A0384E77D
:104EB00093E00E94851C68EF71E084E793E00E9414
:104EC0008515609107037091080384E793E00E94C1
:104ED000851C68EF71E084E793E00E94851580915E
:104EE0000503909106030E944E1C64E670E080E08A
:104EF00090E00E9474160150110999F66EEE71E06F
:104F000084E793E00E94851541E06BE689E60E9404
:104F1000B507082F10E043E06AE189E60E94B50773
:104F200040E16BE189E60E94B50749E069E189E665
:104F30000E94B50748E16CE189E60E94B5078091BF
:104F4000000190910101029729F440E06CE189E6AB
:104F50000E94B5078091000190910101049729F406
:104F600048E06CE189E60E94B507809100019091CC
:104F70000101089729F440E16CE189E60E94B50738
:104F800043E06DE189E60E94B50742E267E389E606
:104F90000E94B50741E068E389E60E94B50740E456
:104FA00064E289E60E94B50781113DC04CE865E2E4
:104FB00089E60E94B507811136C043E066E289E6C2
:104FC0000E94B50781112FC046ED67E289E60E9475
:104FD000B507811128C04CE068E289E60E94B50758
:104FE000811121C04AE069E289E60E94B50781117A
:104FF0001AC041E86AE289E60E94B507811113C030
:1050000041E164E689E60E94B50781110CC043E0E6
:1050100067E689E60E94B507811105C040E861E0B6
:1050200089E60E94B50747E06AE689E60E94B5076F
:1050300040E66AE689E60E94B5070115110531F0E0
:10504000C8010E944E1C8CE291E04CCD0AE010E0B9
:105050000E941E030E941F0462EF71E084E793E048
:105060000E948515609103037091040384E793E027
:105070000E94851C68EF71E084E793E00E9485152B
:105080006091FD027091FE0284E793E00E94851C0E
:1050900068EF71E084E793E00E9485156091FB0260
:1050A0007091FC0284E793E00E94851C68EF71E038
:1050B00084E793E00E9485156091010370910203DB
:1050C00084E793E00E94851C68EF71E084E793E039
:1050D0000E9485156091F9027091FA0284E793E0CD
:1050E0000E94851C68EF71E084E793E00E948515BB
:1050F0006091F7027091F80284E793E00E94851CAA
:1051000068EF71E084E793E00E9485156091FF02EB
:105110007091000384E793E00E94851C68EF71E0C2
:1051200084E793E00E9485156091F5027091F60284
:1051300084E793E00E94851C68EF71E084E793E0C8
:105140000E9485158091F3029091F4020E944E1CFA
:1051500064E670E080E090E00E947416015011094E
:1051600009F076CFC0900F03D0901003E0901103A8
:10517000F090120360910F0370911003809111035E
:105180009091120311E020E030E040E85FE30E94DC
:10519000B02E18160CF010E020E030E040E85FEB95
:1051A000C701B6010E94582D881F8827881F212F0C
:1051B000282B31E08091090390910A03892B09F093
:1051C00030E0922F932B21E0409103035091040390
:1051D0004F3F5F4F09F020E0292B91E04091010300
:1051E000509102034F3F5F4F09F090E0922B09F07E
:1051F00093C08091FF0290910003019609F48CC046
:1052000060E089E00E94081660E088E00E940816CD
:105210000E945C124091150150E060E070E02AE0CD
:1052200084E793E00E943D146AEF71E084E793E025
:105230000E9485154091140150E060E070E02AE082
:1052400084E793E00E943D146AEF71E084E793E005
:105250000E9485154091130150E060E070E02AE063
:1052600084E793E00E943D1460E272E084E793E0FB
:105270000E9485154091120150E060E070E02AE044
:1052800084E793E00E943D1462E472E084E793E0D7
:105290000E94851540911E0350E060E070E02AE016
:1052A00084E793E00E943D1462E472E084E793E0B7
:1052B0000E94851540911D0350E060E070E02AE0F7
:1052C00084E793E00E943D1484E793E00E948614F3
:1052D0000E945C12CE0101960E94380846E46CEFF1
:1052E00071E0CE010D960E94BE1C64E072E0CE011A
:1052F00001960E94851566E071E0CE0101960E943C
:105300008A1462E172E0CE0101960E9485150EE0DA
:1053100010E091E2F92E1AC00CE211E061E084E0A5
:105320000E94081664E170E080E090E00E9474162C
:1053300060E084E00E9408166EE170E080E090E09A
:105340000E9474160150110949F75ACFF801F092E2
:105350005700449150E060E070E020E1CE010196FA
:105360000E943D140F5F1F4F0831110579F7CE01E0
:1053700001960E94861420E030E040E056E46091FF
:1053800002017091030180910401909105010E9436
:10539000582D811103C062E272E002C069E272E03E
:1053A000CE0101960E948A144091150150E060E000
:1053B00070E02AE0CE0101960E943D146AEF71E090
:1053C000CE0101960E9485154091140150E060E0E5
:1053D00070E02AE0CE0101960E943D146AEF71E070
:1053E000CE0101960E9485154091130150E060E0C6
:1053F00070E02AE0CE0101960E943D1460EE71E05B
:10540000CE0101960E9485154091120150E060E0A6
:1054100070E02AE0CE0101960E943D1462E472E041
:10542000CE0101960E94851540911E0350E060E078
:1054300070E02AE0CE0101960E943D1462E472E021
:10544000CE0101960E94851540911D0350E060E059
:1054500070E02AE0CE0101960E943D14CE01019633
:105460000E948614CE010D960E948A1180911B0322
:1054700090911C03029761F540912A0350912B03F0
:1054800060912C0370912D0380912303909124034C
:10549000A0912503B0912603840F951FA61FB71F67
:1054A0008093170390931803A0931903B0931A03E2
:1054B0006FE272E084E793E00E9485156091170324
:1054C000709118038091190390911A030E94B61EDF
:1054D0008091360390913703A0913803B09139033E
:1054E000892B8A2B8B2B99F4809123039091240391
:1054F000A0912503B09126030A96A11DB11D8093AA
:10550000360390933703A0933803B09339036EE3C7
:1055100072E084E793E00E94851560912303709107
:10552000240380912503909126030E94B61E68E310
:1055300072E084E793E00E948515609136037091D4
:10554000370380913803909139030E94B61E60E0C2
:1055500081E10E94081660E084E00E9408168FB77F
:10556000F89490E890936100109261001092C10647
:105570008FBF01E010E08AE3E82E81E0F82E8091F1
:105580002E0390912F03892B09F0D3C00E945C1247
:105590000E94FA030E94D3034091230350912403F5
:1055A00060912503709126032AE084E793E00E942E
:1055B0003D1460E272E084E793E00E9485156091FB
:1055C00036037091370380913803909139030E941C
:1055D000B61E68EE73E080E090E00E94741661E011
:1055E00081E10E94081661E084E00E9408166AE0EA
:1055F00070E080E090E00E94741660E081E10E941B
:10560000081660E084E00E940816809036039090AF
:105610003703A0903803B090390380912303909111
:105620002403A0912503B091260388159905AA05A6
:10563000BB0508F4A4CFE0911C01F0911D01AF015E
:105640000F2E000C660B770B480D591D6A1D7B1D34
:1056500040933203509333036093340370933503C4
:105660002091300330913103CF01820F931F092E17
:10567000000CAA0BBB0B880D991DAA1DBB1D8093A6
:10568000360390933703A0933803B09339030E94F5
:105690004A080E940C0310932F0300932E0360E02E
:1056A00085E00E94081664EF71E080E090E00E94BF
:1056B000741661E085E00E94081660E08091110494
:1056C000909112040E944E03F0921901E092180189
:1056D000809169008C6080936900E99A50CF409175
:1056E0002303509124036091250370912603809138
:1056F000320390913303A0913403B09135034817DE
:1057000059076A077B07E0F40E94921E892B09F46F
:1057100055C060911F0370912003809121039091E7
:10572000220323E333E343E550E40E94582D87FD31
:1057300073C080912E0390912F03019781F2C3C013
:10574000809170008E7F8093700081E294E00E94CF
:105750008A1110921B0110921A01809130039091CE
:105760003103892B31F580911C0190911D01092E87
:10577000000CAA0BBB0B4091320350913303609194
:10578000340370913503840F951FA61FB71F8093B4
:10579000320390933303A0933403B09335030E94F4
:1057A0004A0860E080911104909112040E944E0317
:1057B000ABCF10922F0310922E03A6CF6AE070E0B9
:1057C00080E090E00E9474160E94921E892B09F0DE
:1057D000A0CF0E944003809170008E7F8093700064
:1057E00061E084E00E94081681E294E00E948A1140
:1057F00060E375E780E090E00E94741660E08091BD
:105800001104909112040E944E030E944A0860E025
:1058100084E00E9408167DCF0E94AC0360911F03B4
:1058200070912003809121039091220323E333E3BD
:1058300043E550E40E94582D87FF7BCF0E94400330
:10584000809170008E7F8093700081E294E00E94CE
:105850008A1140E46BE689E60E94B50780E00E9469
:105860006C1E9FB7F89480E88093610083E080937A
:1058700061008093C1069FBF68EE73E080E090E016
:105880000E94741660E086E00E94081661E089E0DC
:105890000E94081661E088E00E94081661E084E03A
:1058A0000E9408166AE070E080E090E00E947416A2
:1058B00060E084E00E94081660ED77E080E090E010
:1058C0000E947416EBCF0E940B1459CE6C0160E05D
:1058D00081E10E9408160D2C000CEE08FF0861E023
:1058E00084E00E940816C701B6010E94741660E0A9
:1058F00084E00E940816C701B6010E947416EFCF1B
:10590000E4E7F3E01382128248EE53E060E070E0D7
:10591000448355836683778384E491E09183808315
:1059200085EC90E09587848784EC90E09787868764
:1059300080EC90E0918B808B81EC90E0938B828B5C
:1059400082EC90E0958B848B86EC90E0978B868B35
:10595000118E128E138E148E809161008F70809341
:10596000C106E1E9F6E0138212824483558366831F
:10597000778386E591E091838083109246041092AC
:1059800068061092690684E68093880610928D0658
:1059900080E580938E0681E080938F0685E194E018
:1059A0000E943808209120013091210160911E0150
:1059B00070911F01C9010E944B2F709314046093D2
:1059C000130488EE93E0B9010E944B2F70931204E8
:1059D0006093110408955058BB27AA270E94032DF5
:1059E0000C94762E0E94682E38F00E946F2E20F0C4
:1059F00039F49F3F19F426F40C94652E0EF4E095CB
:105A0000E7FB0C945F2EE92F0E94872E58F3BA17FC
:105A1000620773078407950720F079F4A6F50C94C4
:105A2000A92E0EF4E0950B2EBA2FA02D0B01B90173
:105A300090010C01CA01A0011124FF27591B99F004
:105A4000593F50F4503E68F11A16F040A22F232F10
:105A5000342F4427585FF3CF469537952795A79560
:105A6000F0405395C9F77EF41F16BA0B620B730B07
:105A7000840BBAF09150A1F0FF0FBB1F661F771F78
:105A8000881FC2F70EC0BA0F621F731F841F48F42D
:105A9000879577956795B795F7959E3F08F0B0CFB6
:105AA0009395880F08F09927EE0F9795879508959D
:105AB0000E943B2E08F481E008950E94712D0C9401
:105AC000762E0E946F2E58F00E94682E40F029F426
:105AD0005F3F29F00C945F2E51110C94AA2E0C9468
